:020000040800F2
:10000000481C0020E9020008EF1C0008A5190008A0
:10001000ED1C00081F060008652300080000000012
:10002000000000000000000000000000290200089D
:10003000210600080000000085020008691D000874
:100040000303000803030008030300080303000878
:100050000303000803030008030300080303000868
:100060000303000803030008030300080303000858
:100070000303000803030008030300080303000848
:100080000303000803030008030300080303000838
:100090000303000803030008030300080303000828
:1000A0000303000803030008030300080303000818
:1000B000291E0008030300080303000803030008C7
:1000C00003030008030300080303000803030008F8
:1000D0000303000859230008030300080303000872
:1000E00003030008030300080303000803030008D8
:1000F00003030008030300080303000803030008C8
:1001000003030008030300080303000803030008B7
:1001100003030008030300080303000803030008A7
:100120000303000803030008030300080303000897
:100130000303000803030008030300080303000887
:100140000303000803030008030300080303000877
:100150000303000803030008030300080303000867
:100160000303000803030008030300080303000857
:100170000303000803030008030300080000000055
:10018000030300080303000800F002F800F03CF845
:100190000AA090E8000C82448344AAF10107DA45E2
:1001A00001D100F031F8AFF2090EBAE80F0013F0F8
:1001B000010F18BFFB1A43F0010318474C38000029
:1001C0006C380000103A24BF78C878C1FAD85207BA
:1001D00024BF30C830C144BF04680C6070470000C1
:1001E0000023002400250026103A28BF78C1FBD840
:1001F000520728BF30C148BF0B6070471FB503F0DE
:10020000F1FB1FBD10B510BD00F0D0F91146FFF78E
:10021000F5FF02F0B8F800F0EEF903B4FFF7F2FFD3
:1002200003BC00F0F5F900002C4B19680868B0E831
:10023000F04F80F30988BFF36F8F4FF0000080F319
:10024000118870470000000008480068006880F3CB
:1002500008884FF0000080F3148862B661B6BFF3DF
:100260004F8FBFF36F8F00DF00BF00BF08ED00E0CE
:10027000DFF80C00016841F470010160704700BFB5
:1002800088ED00E0EFF30980BFF36F8F134B1A681E
:100290001EF0100F08BF20ED108A20E9F04F10600B
:1002A00009B44FF0500080F31188BFF34F8FBFF3B4
:1002B0006F8F02F095FE4FF0000080F3118809BCAB
:1002C00019680868B0E8F04F1EF0100F08BFB0ECD6
:1002D000108A80F30988BFF36F8F70471C000020DD
:1002E000EFF3058070470000094880470948004740
:1002F000FEE7FEE7FEE7FEE7FEE7FEE7FEE7FEE7D6
:10030000FEE7FEE704480549054A064B7047000032
:10031000191E00088901000848160020481C00200A
:10032000481800204818002053EA020C00F06980A9
:100330002DE9F04B4FF00006002B1FBFB3FA83F5F9
:1003400003FA05F424FA05F65E4012BF1643B2FA2A
:1003500082F502FA05F4C5F120051EBF22FA05FC5C
:1003600044EA0C04203556EA044C4FEA144418BF02
:10037000641C4FF000084FF00009904271EB030C31
:1003800039D3002919BFB1FA81F701FA07F6B0FA9B
:1003900080F700FA07F6C7F120071EBF20FA07FC16
:1003A00046EA0C062037B6FBF4FCA7EB0507103F26
:1003B00007F01F0BCBF120060CFA0BFB2CFA06F60C
:1003C00044BFB3460026202FA4BF5E464FF0000B6B
:1003D0005BEA060C08BF4FF0010B19EB0B09ABFBF6
:1003E000027C48EB0608C01B06FB02CC0BFB03CCCF
:1003F00071EB0C01C1E70B46024641464846BDE899
:10040000F08B13B54FF000004FF00001AFF3008008
:10041000BDE81C407047032A40F2308010F0030C06
:1004200000F0158011F8013BBCF1020F624498BF47
:1004300011F801CB00F8013B38BF11F8013BA2F1E4
:10044000040298BF00F801CB38BF00F8013B11F05F
:10045000030300F05780083AC0F0088051F8043BCD
:10046000083A51F804CBA0E80810F5E7121D5CBF6C
:1004700051F8043B40F8043BAFF30080D20724BF9F
:1004800011F8013B11F801CB48BF11F8012B24BF33
:1004900000F8013B00F801CB48BF00F8012B704782
:1004A00002F0FF0343EA032242EA024200F05EB890
:1004B0004FF0000200B5134694469646203922BFFD
:1004C000A0E80C50A0E80C50B1F12001BFF4F7AF48
:1004D000090728BFA0E80C5048BF0CC05DF804EB2A
:1004E000890028BF40F8042B08BF704748BF20F898
:1004F000022B11F0804F18BF00F8012B7047704796
:100500007047704710B5203AC0F00B80B1E8185022
:10051000203AA0E81850B1E81850A0E81850BFF4ED
:10052000F5AF5FEA027C24BFB1E81850A0E818508C
:1005300044BF18C918C0BDE810405FEA827C24BFE0
:1005400051F8043B40F8043B08BF7047D20728BF6E
:1005500031F8023B48BF11F8012B28BF20F8023BBD
:1005600048BF00F8012B70474FF000020429C0F08B
:10057000128010F0030C3FF49DAFCCF1040CBCF1E1
:10058000020F18BF00F8012BA8BF20F8022BA1EB27
:100590000C01FFF78FBF5FEAC17C24BF00F8012B7D
:1005A00000F8012B48BF00F8012B7047754600F09A
:1005B0002BF8AE4605006946534620F007008546F5
:1005C00018B020B5FFF79EFEBDE820404FF00006B2
:1005D0004FF000074FF000084FF0000B21F007012B
:1005E000AC46ACE8C009ACE8C009ACE8C009ACE86E
:1005F000C0098D46704710B50446AFF30080204611
:10060000BDE81040FFF709BE00487047E415002020
:1006100001491820ABBEFEE7260002007047FEE746
:10062000704772B6FEE72DE9F0410446876D00F091
:100630005BF9064694F835000025022806D0802094
:10064000606584F834500120BDE8F08120680168BD
:1006500021F0160101602068416921F080014161AB
:10066000206C08B9A06C20B12068016821F0080155
:1006700001602068016821F0010101600CE000F0D8
:1006800033F9801B052807D920206065032084F8F2
:10069000350084F83450D7E720680068C007EED1F1
:1006A00094F85C103F208840B860012084F8350041
:1006B00084F834500020C7E790F83510022903D0A1
:1006C0008021416501207047052180F835100068C0
:1006D000016821F001010160002070472DE9F84F09
:1006E000DFF8BCA10022012503264FF00F090AF113
:1006F000040BAAF1040E00BF0B6805FA02F42340B4
:10070000A34270D10F7907F00307012F01D0022F08
:1007100016D187684FEA420806FA08FC27EA0C0758
:10072000D1F80CC00CFA08FC4CEA070CC0F808C061
:100730004768A7430C79C4F3001494403C434460D9
:100740000C79E443A4070AD0C4684FEA420C06FAC5
:100750000CF7BC438F6807FA0CF72743C7600C7986
:1007600004F00304022C12D1D40800EB840CDCF852
:1007700020405707FF0E09FA07F824EA0804D1F8C9
:10078000108008FA07F848EA0408CCF820800468CA
:100790004FEA420C06FA0CF7BC430F7907F0030747
:1007A00007FA0CF7274307604C6814F4403F70D0F9
:1007B0003C4C276847F480472760246822F00307F1
:1007C00004F480440094384C07EB040CDCF808482F
:1007D00097074FEA177809FA08F7BC43334FB84236
:1007E00002D1002724E054E0314FB84201D1012763
:1007F0001EE0304FB84201D1022719E02E4FB84217
:1008000001D1032714E02D4FB84201D104270FE096
:100810002B4FB84201D105270AE02A4FB84201D137
:10082000062705E0284FB84201D1072700E0082736
:1008300007FA08F72743CCF80878DAF8004057465B
:10084000D1F804C09C435FEACC2C00D51C433C602B
:10085000DBF800405F46D1F804C09C435FEA8C2C73
:1008600000D51C433C60DEF800407746D1F804C058
:100870009C435FEA8C3C00D51C433C60084F083F1A
:100880003C68D1F804C09C435FEACC3C00D51C43D3
:100890003C60521C102AFFF42FAFBDE8F88F000017
:1008A000083C014044380240003001400000024052
:1008B0000004024000080240000C02400010024008
:1008C0000014024000180240001C0240426921EA64
:1008D00002030A4043EA0241816170470AB1816123
:1008E00070470904FBE7000001488068704700007A
:1008F0000C00002002488168027811448160704732
:100900000C0000200B4810B5016841F40071016033
:10091000016841F480610160016841F48071016007
:10092000032000F09FF80F2000F006F800F050F8C8
:10093000002010BD003C024030B50546204887B07D
:100940000024016841F001010160006806A900F07F
:100950000100009001A800F031F90498B0B100F056
:100960004DF9400017494FF08042B0FBF1F11648B5
:10097000491E026040F2E732C0E90324C0E90114D5
:10098000846100F0B5FB040003D015E000F036F9F7
:10099000E8E70D4800F0FAFB04000DD11C2000F040
:1009A00033F8102D07D2002229461C2000F03AF817
:1009B0000648056000E0012407B0204630BD000075
:1009C0004038024040420F00C808002010000020BC
:1009D0000C4882B0016841F480410160006800F475
:1009E000804000900748001F016841F0805101607D
:1009F0000068002200F0805000900F21901E02B08D
:100A000000F010B844380240002809DB00F01F0253
:100A1000012191404009800000F1E020C0F8001160
:100A200070470000F0B40E4B1B680C46C3F3022362
:100A3000C3F10705042D00D90425191D072901D28A
:100A4000002300E0DB1E012606FA05F1491E2140C5
:100A500099409E40761E16403143F0BC01F083BCA5
:100A60000CED00E0064900F0070208684FF6FF03AE
:100A7000184040EA0220034A104308607047000013
:100A80000CED00E00000FA052DE9F0470E460500E8
:100A900065D0DFF81481D8F80000F7B200F0070045
:100AA000B04207D288F80070D8F8000000F00700C4
:100AB000B04254D128683D4C810712D5400703D578
:100AC000206840F4E05020602878000703D52068B3
:100AD00040F4604020602068A96820F0F0000843DE
:100AE00020602878C0072DD030496868083901286F
:100AF00012D0022813D0032811D0096889070029D1
:100B00002DDA216821F0030101432160FFF7ECFE9B
:100B1000814641F2883A0EE009688903EFE70968E7
:100B20008901ECE7FFF7E0FEA0EB0901514502D98E
:100B30000320BDE8F0872068696800F00C00B0EB86
:100B4000810FEFD1D8F80010404601F00701B14203
:100B500007D90770006800F00700B04201D00120FB
:100B6000E7E72878400705D52068E96820F4E050D9
:100B7000084320602878000706D52068296920F4FA
:100B8000604040EAC100206000F058F82168084A3F
:100B9000C1F30311515CC84006490860064800686B
:100BA000FFF7CAFE0020C4E7003C024008380240BC
:100BB000EE39000818000020100000200F2202600B
:100BC0000C4A136803F003034360136803F0F00357
:100BD0008360136803F4E053C36012684FF4E0537A
:100BE00003EAD20202610448006800F007000860CE
:100BF0007047000008380240003C024004480549A4
:100C000000680968044AC1F38221515CC8407047FA
:100C10001800002008380240FE3900080448054941
:100C200000680968044AC1F34231515CC84070470A
:100C30001800002008380240FE390008154810B599
:100C4000006810F00C02144813D04110042A0FD091
:100C5000082A0ED10F4C241F2268236802F03F029D
:100C60005B0207D52068C0F38810A0FB010106E0F5
:100C7000084610BD2168C1F38811A1FB00010023C3
:100C8000FFF752FB2168C1F30141491C4900B0FB49
:100C9000F1F010BD083802400024F4002DE9F84FAF
:100CA00004006ED02078DFF84C93C007A9F104054A
:100CB0004AD009F104000168C1F38101012908D07B
:100CC0000068C0F3810002280AD1D9F80000400270
:100CD00006D52868800337D560680028E1D033E066
:100CE0006068B0F5803F10D0B0F5A02F286810D014
:100CF00020F480302860286820F480202860606814
:100D0000A8B1FFF7F1FD06460DE0286840F48030F9
:100D1000F4E740F480202860F7E700BFFFF7E4FD28
:100D2000801B642873D828688003F7D50CE0FFF790
:100D3000DBFD064605E000BFFFF7D6FD801B6428FB
:100D4000F0D828688003F7D42078DFF8AC828007D9
:100D50004FF0000A3ED5A748001D016811F00C0FA6
:100D600008D00068C0F3810002280BD1D9F8000038
:100D7000400207D42868800716D5E068012800D112
:100D800012E033E1E068B8B10120C8F80000FFF7D5
:100D9000ABFD064605E000BFFFF7A6FD801B02285D
:100DA000C0D828688007F7D52868216920F0F800A6
:100DB00040EAC10028600DE0C8F800A0FFF794FDEC
:100DC000064604E0FFF790FD801B02281FD8286824
:100DD0008007F7D42078000722D5864F87486169BD
:100DE000703771B101210160FFF77EFD064604E016
:100DF000FFF77AFD801B022809D838688007F7D5ED
:100E00000EE0C0F800A0FFF76FFD064605E082E0A7
:100E1000FFF76AFD801B02287DD838688007F7D469
:100E20002078400768D5DFF8CCB100270BF13C0BE8
:100E3000DBF80000C0000BD4DBF8001041F080515B
:100E4000CBF80010DBF80000012700F08050009084
:100E50006B4E3068C00510D4306840F4807030604C
:100E6000FFF742FD009005E0FFF73EFD0099401AB4
:100E7000022850D83068C005F6D55E4EA0686C36A2
:100E800001280FD00528306810D020F00100306014
:100E9000306820F004003060A068B8B1FFF724FD8E
:100EA00000900FE0306840F00100F4E740F00400EB
:100EB0003060F7E7FFF718FD0099411A41F28830DA
:100EC000814266D830688007F4D50EE0FFF70CFD4C
:100ED000009007E0FFF708FD0099411A41F28830C1
:100EE000814256D830688007F4D42FB1DBF8001067
:100EF00021F08051CBF80010A069C8B33D49091D0D
:100F00000968C1F3810102294AD00228504607D05E
:100F1000C8F8600000E03CE0FFF7E6FC04463BE078
:100F20004746C8F86000FFF7DFFC064605E000BF53
:100F3000FFF7DAFC801B02282BD828688001F7D441
:100F4000D4E907010843A16A2E4A490802EB01418E
:100F5000626A41EA8211084394F82C1040EA016168
:100F6000C9F8001001203866FFF7BEFC044606E011
:100F70003EE000BFFFF7B8FC001B022809D8286834
:100F80008001F7D534E000BFFFF7AEFC001B02285C
:100F900002D90320BDE8F88F28688001F4D427E047
:100FA0000128F7D0D9F80000E26900F480019142ED
:100FB0001CD1226A00F03F01914217D147F6C0715F
:100FC000626A0140B1EB821F10D1A26A4FF0FF3379
:100FD00000F4403103EB5202B1EB024F06D194F81A
:100FE0002C1000F07060B0EB016F01D00120D1E750
:100FF0000020CFE70438024000004742800E4742FD
:10100000007000400000FFFF7047704710B590F877
:101010003C20012A22D0012280F83C20CA688C683A
:1010200022F4407222434C6822F4806222430C680E
:1010300022F4006222430C6922F4805222434C695C
:1010400022F400522243C969002322F480420A4359
:1010500001684A6480F83C30002010BD022010BDB9
:1010600070B590F83C20012A32D0012480F83C4031
:10107000022280F83D2003685A689D6822F07006BD
:101080000A6832435A60134B02689A4214D0B2F194
:10109000804F11D0104B9A420ED0104B9A420BD079
:1010A0000F4B9A4208D00F4B9A4205D00E4B9A42F2
:1010B00002D00E4B9A4204D1496825F080031943AF
:1010C000916080F83D40002180F83C10084670BDDA
:1010D000022070BD000001400004004000080040F4
:1010E000000C004000040140004001400018004096
:1010F00010B5040003D094F83D0010B107E00120C2
:1011000010BD002084F83C00204600F01FF80220AB
:1011100084F83D00211D206800F08CFE012084F839
:10112000460084F83E0084F83F0084F8400084F8CC
:10113000410084F8420084F8430084F8440084F8B5
:10114000450084F83D00002010BD000008B50C4AA1
:1011500001680C48914207D1016841F0010101602A
:10116000006800F0010009E0074A914207D10168D8
:1011700041F002010160006800F00200009008BD2B
:1011800000000140443802400004014090F83D1046
:10119000012901D001207047022180F83D1001682B
:1011A000CA6842F00102CA6000681149884214D03E
:1011B000B0F1804F11D00F4988420ED00E498842BD
:1011C0000BD00E49884208D00D49884205D00D4900
:1011D000884202D00C49884204D1816801F007019D
:1011E000062903D0016841F0010101600020704729
:1011F000000001400004004000080040000C0040D6
:1012000000040140004001400018004070B5044651
:1012100090F83C000025012817D0012684F83C6096
:10122000022084F83D002068826822F0770222F4D0
:101230007F4282600868502838D00DDC20284FD0CB
:1012400005DC90B3102811D14AE0022070BD30288F
:1012500046D040280AD13BE060282FD070280DD01E
:10126000B0F5805F03D0B0F5005F12D0012584F89F
:101270003D60002084F83C00284670BDCB68D1E971
:101280000121206800F03AFE2068816841F0770172
:1012900009E0CB68D1E90121206800F02FFE206829
:1012A000816841F480418160E1E719E0CA684968DA
:1012B000206800F0F7FE5021206806E0CA684968FF
:1012C000206800F000FF6021206800F021FECEE7DA
:1012D000CA684968206800F0E5FE40212068F4E70C
:1012E000226801461046F0E7704770B50446006872
:1012F00001694FF00005C943890715D4C168C94386
:10130000890711D4E91E01610120207720688069D6
:101310008007204602D0FFF7E7FF04E000F0DCF88A
:10132000204600F06EF9257720680169C943490716
:1013300017D4C168C943490713D46FF00401016190
:10134000022020772068806910F4407F204602D078
:10135000FFF7CAFF04E000F0BFF8204600F051F9A3
:10136000257720680169C943090716D4C168C943B4
:10137000090712D46FF0080101610420207720686A
:10138000C0698007204602D0FFF7AEFF04E000F0FE
:10139000A3F8204600F035F9257720680169C94394
:1013A000C90617D4C168C943C90613D46FF0100128
:1013B0000161082020772068C06910F4407F204632
:1013C00002D0FFF791FF04E000F086F8204600F01D
:1013D00018F9257720680169C943C90708D1C16890
:1013E000C943C90704D1891E0161204600F00AF9EA
:1013F00020680169C943090609D4C168C9430906BF
:1014000005D46FF0800101612046FFF7FDFD2068E3
:101410000169C943490609D4C168C943490605D4CD
:101420006FF040010161204600F0F3F82068016987
:10143000C94389060BD4C168C943890607D46FF034
:10144000200101612046BDE87040FFF7DEBD70BDA0
:1014500010B586B0044614216846FFF729F82368C2
:10146000184C002118480222A34212D1036843F00D
:1014700010030360006800F0100005904FF4D440A2
:101480000090CDE901210120CDE9031069460F4804
:1014900014E00F4CA34213D1036843F0040303602C
:1014A000006800F0040005904FF470700090CDE9E2
:1014B00001210320CDE9031069460648FFF70EF924
:1014C00006B010BD0000014030380240001002405C
:1014D0000004014000080240704770B5044690F8CF
:1014E0003C0000260D4601280FD0012084F83C0066
:1014F0006AB1042A1DD0082A2FD00C2A3FD0012619
:10150000002084F83C00304670BD022070BD206889
:1015100000F006FD2068816941F0080181612068C2
:10152000816921F004018161206881692A69114380
:1015300011E0206800F024FD2068816941F4006119
:1015400081612068816921F48061816120688169FD
:101550002A6941EA02218161D2E7206800F046FD54
:101560002068C16941F00801C1612068C16921F0AA
:101570000401C1612068C1692A69114311E0206832
:1015800000F068FD2068C16941F40061C161206814
:10159000C16921F48061C1612068C1692A6941EA99
:1015A0000221C161ACE710B5040003D094F83D00FE
:1015B00010B107E0012010BD002084F83C00204657
:1015C00000F01EF8022084F83D00211D206800F084
:1015D00031FC012084F8460084F83E0084F83F0086
:1015E00084F8400084F8410084F8420084F8430005
:1015F00084F8440084F8450084F83D00002010BDC4
:10160000704770470068B0F1804F01D1FFF772B9A1
:101610007047704770477047F8B50168044608681E
:10162000CA684B6910F00F0F4FF0000559D003F056
:10163000010602F49077374365D0C10705D0D10584
:1016400003D5216C41F001012164410705D5D9077B
:1016500003D0216C41F002012164810705D5D9072F
:1016600003D0216C41F004012164010707D502F089
:101670002001314303D0216C41F008012164216C29
:1016800000293AD0800604D5900602D5204600F005
:101690007CFD20684069216CC0F38010090700D4EC
:1016A00060B3204600F04AFD20684069400621D51D
:1016B0002068143050E8001F21F0400140E800127B
:1016C000002AF5D1A06BA8B16C490165A06BFEF7AB
:1016D000F3FF002811D0A06B016D01B0BDE8F04010
:1016E000084783060FD593060DD52046BDE8F84080
:1016F00000F04BBD2046FFF78EFFF8BD2046FFF7F8
:101700008AFF2564F8BD266B2023012E79D1C606F9
:1017100077D5D60675D508684868009048694006B0
:1017200040D5A16B086840680004000CEAD0A28D87
:101730008242E7D9E085C869B0F5807F2DD0206866
:101740000C3050E8001F21F4807140E80012002A9C
:10175000F5D12068143050E8001F21F0010140E865
:101760000012002AF5D12068143050E8001F21F043
:10177000400140E80012002AF5D184F83E3025638C
:1017800020680C3050E8001F21F0100140E80012E2
:10179000002AF5D1A06BFEF746FFA08DE18D401A1F
:1017A00081B229E0A08DE18D401A81B2E08D002840
:1017B000A8D00029A6D020680C3050E8002F22F4D1
:1017C000907240E80026002EF5D12068143050E8D1
:1017D000002F22F0010240E80026002EF5D184F807
:1017E0003E30256320680C3050E8002F22F01002B4
:1017F00040E80023002BF5D12046FFF70BFFF8BD92
:10180000FFE705062BD5150629D594F83D002128BC
:10181000F5D1A068B0F5805F01D12069B0B1206A30
:10182000411C2162216800784860E08C401E000461
:10183000000CE084E3D12068C16821F08001C16020
:101840002068C16841F04001C160D8E7206A008883
:10185000C0F308004860206A801C2062E5E740066B
:10186000CDD55006CBD5CA68204622F04002CA60CA
:1018700084F83D3000F095F8C1E700002D21000804
:1018800070B5040004D094F83D00002510B106E0C6
:10189000012070BD84F83C50204600F023F824203D
:1018A00084F83D002068C16821F40051C1602046E1
:1018B00000F0CCFC2068016921F4904101612068AE
:1018C000416921F02A0141612068C16841F4005159
:1018D000C1602564202084F83D0084F83E0000208B
:1018E00070BD0000F0B587B0044614216846FEF7CD
:1018F000DFFD274F236800222649022403250726FF
:101900002548BB4224D1234B14331F6847F01007EE
:101910001F601B6803F0100305930B6843F001037D
:101920000B60096802AB01F0010105916902CDE984
:10193000001483E864006946FEF7D0FE002205210A
:101940002520FFF76FF82520FFF75EF807B0F0BD00
:10195000124FBB42FAD10F4B10331F6847F40037C8
:101960001F601B6803F4003305930B6843F0010309
:101970000B60096802AB01F0010105910C21CDE972
:10198000001483E864006946FEF7A8FEDEE7000065
:101990000010014030380240000002400044004086
:1019A00070477047FEE700000EB5094A0420A2F513
:1019B00000718DE807000023802206A1084801F08D
:1019C0002FFE0849086008B101F0BEFAFEE70000EA
:1019D0009C02002053746172745F7461736B000029
:1019E000F11C00080000002070B586B01421684684
:1019F000FEF75EFD22480024016841F010010160FD
:101A0000016801F010010591016841F08001016059
:101A1000016801F080010591016841F00101016058
:101A2000016801F001010591016841F004010160C4
:101A3000016801F004010591016841F002010160B3
:101A40000068104E00F002004FF44075059000222F
:101A500029463046FEF742FF0E20CDE900046946D4
:101A600009480294FEF73AFE01200095CDE90104F1
:101A7000694630460394FEF731FE06B070BD0000A3
:101A800030380240000402400010024010B596B009
:101A900000240F9410941194129413941C216846FE
:101AA0001494FEF705FD202107A8FEF701FD344838
:101AB00032490160A721C0E901144FF47A71C0E9ED
:101AC000031444618461FFF713FB08B1FEF7A9FD1D
:101AD0004FF480500F900FA92948FFF797FB08B1EA
:101AE000FEF79FFD2648FFF75EFD08B1FEF799FD62
:101AF000139413A922481494FFF7B2FA08B1FEF721
:101B000090FD6020CDE900040294039404940594B0
:101B1000002269461A480694FFF7DFFC08B1FEF779
:101B200080FD042269461648FFF7D7FC08B1FEF78E
:101B300078FD082269461248FFF7CFFC08B1FEF78E
:101B400070FD0C2269460E48FFF7C7FC08B1FEF78E
:101B500068FD0794089409944FF400500A94CDE965
:101B60000B4007A906480E94FFF750FA08B1FEF79C
:101B700058FD0348FFF76CFC16B010BD0000014093
:101B8000B007002010B596B000240F941094119463
:101B9000129413941C2168461494FEF789FC2021AA
:101BA00007A8FEF785FC344832490160A721C0E947
:101BB00001144FF47A71C0E9031444618461FFF7A2
:101BC00097FA08B1FEF72DFD4FF480500F900FA942
:101BD0002948FFF71BFB08B1FEF723FD2648FFF756
:101BE000E2FC08B1FEF71DFD139413A922481494DA
:101BF000FFF736FA08B1FEF714FD6020CDE90004C6
:101C00000294039404940594002269461A480694A9
:101C1000FFF763FC08B1FEF704FD0422694616488D
:101C2000FFF75BFC08B1FEF7FCFC0822694612488E
:101C3000FFF753FC08B1FEF7F4FC0C2269460E488E
:101C4000FFF74BFC08B1FEF7ECFC079408940994ED
:101C50004FF400500A94CDE90B4007A906480E94B2
:101C6000FFF7D4F908B1FEF7DCFC0348FFF7F0FBFF
:101C700016B010BD00040140F80700200C4810B554
:101C80000A4901604FF4E1314160002181600C227A
:101C9000C160C0E904128161C161FFF7F1FD002854
:101CA00003D0BDE81040FEF7BCBC10BD00100140E1
:101CB000400800200C4810B50A4901604FF4E1319A
:101CC0004160002181600C22C160C0E90412816181
:101CD000C161FFF7D5FD002803D0BDE81040FEF735
:101CE000A0BC10BD0044004084080020FEE7FEE7D1
:101CF0003EB500F0A1FF13480425A0F50071009542
:101D0000CDE90110002380220FA1114801F088FCC9
:101D1000104C0023802260600F480095A0F50071F0
:101D2000CDE901100DA10F4801F07AFCA0606168B7
:101D300019B110B1206801F07DF8BDE83E4000F017
:101D40009BBF0000F80400205461736B3100000059
:101D5000ED20000800000020540700205461736B40
:101D6000320000000D21000810B54FF0E02000699E
:101D700001F082FC012803D0BDE8104001F0DCB97D
:101D800010BD000030B593B030216846FEF790FBDF
:101D900014210CA8FEF78CFB1D480025016841F0BA
:101DA00080510160006800F080501190194801686E
:101DB00041F4804101600068022400F480401190E9
:101DC0000120039010200490009406940820CDE98F
:101DD0000750A820CDE9090404200B906846FEF7BF
:101DE0005DFF08B172B6FEE70CA90F2081E8310053
:101DF0004FF4A0500F904FF48050109005210CA884
:101E0000FEF742FE002801D072B6FEE713B030BDE7
:101E100040380240007000400248016841F47001FF
:101E20000160704788ED00E00148FFF75EBA0000EE
:101E3000C8080020F0B50268254C264D264E274FD5
:101E4000274B4FF0804CA04209D0604507D0A842F4
:101E500005D0B04203D0B84201D0984204D122F05C
:101E6000700E4A6842EA0E02A0421BD0604519D0AB
:101E7000A84217D0B04215D0B84213D0984211D022
:101E8000184DA8420ED0184DA8420BD0174DA842AD
:101E900008D0174DA84205D0164DA84202D0164DC5
:101EA000A84203D122F44075CA682A434D6922F042
:101EB00080022A4302608A68C2620A688262A04283
:101EC00001D0984201D10969016301214161F0BD4E
:101ED000000001400004004000080040000C0040E9
:101EE000000401400040014000440140004801401E
:101EF00000180040001C00400020004010B584681D
:101F000042EA032224F47F440A432243826010BD44
:101F1000826822F070020A4342F007018160704734
:101F2000F0B5026A22F001020262036A4268846923
:101F3000124E24F073050C682C4323F002058B68C5
:101F40002B430D4DA84201D0B04205D123F0080724
:101F5000CB683B4323F00403A84201D0B04205D133
:101F60004D6922F4407215438A692A4342608461B4
:101F7000496841630362F0BD000001400004014074
:101F8000F0B5026A22F010020262026A43688469B4
:101F90000D6824F4E64444EA05248D6822F020020A
:101FA00042EA05120F4D104EA84201D0B04206D1B0
:101FB000CF6822F0800242EA071222F04002A842D3
:101FC00001D0B04207D14D6923F4406343EA850351
:101FD0008D6943EA850343608461496881630262D5
:101FE000F0BD00000000014000040140F0B5026AAD
:101FF00022F480720262026A4368C46922F40072A9
:1020000024F073050C68124E2C438D6842EA0522B9
:102010000E4DA84201D0B04206D1CF6822F4006232
:1020200042EA072222F48062A84201D0B04207D1DE
:102030004D6923F4405343EA05138D6943EA0513C0
:102040004360C4614968C1630262F0BD00000140A1
:102050000004014030B5026A22F480520262046A30
:102060004268C3690D6823F4E64343EA05238D689B
:1020700024F4005444EA0534084DA84202D0084D27
:10208000A84204D14D6922F4804242EA851242609E
:10209000C36149680164046230BD00000000014072
:1020A0000004014010B5036A046A24F001040462CC
:1020B000846924F0F00444EA021423F00A020A437B
:1020C0008461026210BD10B5036A23F0100303623D
:1020D0008369046A23F4704343EA023224F0A003C4
:1020E00043EA01118261016210BD0000064D4FF408
:1020F00080744FF4FA7621462846FEF7E7FB304617
:1021000000F072FEF7E7000000040240064D4FF4B5
:1021100000744FF47A7621462846FEF7D7FB304606
:1021200000F062FEF7E700000004024010B5806B8B
:102130000021C185C184FFF76EFA10BD01680C3122
:1021400051E8002F22F4907241E80023002BF5D1D2
:102150000168143151E8002F22F0010241E8002308
:10216000002BF5D1016B012909D101680C3151E82F
:10217000002F22F0100241E80023002BF5D120218E
:1021800080F83E1000210163704708B590F83E10BA
:10219000222901D0022008BD82684FF480539A4260
:1021A00001D1016921B1816A9A421BD04AB10AE08A
:1021B0000268816A5268C2F308020A80816A891C37
:1021C00008E0026972B10268526802F07F020A7088
:1021D000816A491C8162C18D491E0904090CC185AF
:1021E00003D019E002685268F1E70168CA6822F07A
:1021F0002002CA600168CA6822F48072CA6001685D
:102200004A6922F001024A61202180F83E10016BE8
:10221000012903D0FFF7C4FB002008BD00210163A2
:1022200001680C3151E8002F22F0100241E8002330
:10223000002BF5D101680A68D20602D50A68496800
:102240000091818DFFF7E6F9E6E7000070B50446DE
:1022500000680169E26821F440511143016121697C
:10226000A068E26908436169114308432168CA68AC
:1022700049F20C639A430243CA6020684169A2692B
:1022800021F440711143416131492068884202D0F4
:102290003049884202D1FEF7C1FC01E0FEF7AEFCF6
:1022A000E2690023192164253226B2F5004F6268E5
:1022B00028D0A0FB0101930F9200FEF735F80146EC
:1022C000B0FBF5F06FF01802504301EB800006EB15
:1022D0000010B0FBF5F000F0F002B1FBF5F002EBFE
:1022E0000012B1FBF5F06FF01803584301EB8000CA
:1022F00006EB0010B0FBF5F000F00F002168104471
:10230000886070BDA0FB010192185B41FEF70CF8DC
:102310000146B0FBF5F00201B1FBF5F06FF01803D8
:10232000584301EB800006EBC000B0FBF5F000F075
:10233000F80002EB4002B1FBF5F0584301EB8000DE
:1023400006EBC000B0FBF5F000F00700D6E7000098
:1023500000100140001401400148FFF75DB9000082
:1023600040080020FEE70907090E002804DB00F101
:10237000E02080F80014704700F00F0000F1E0202A
:1023800080F8141D7047FEF7BDFAFFF7FBFCFFF75E
:102390002BFBFFF77BFBFFF7F5FBFFF76FFCFFF76E
:1023A00089FC00F005F8FFF7FFFA00F013F8FEE7EC
:1023B000EFF3058010B16FF0050070470448016825
:1023C00011B14FF0FF3070470121016000207047CC
:1023D0006C00002010B5EFF3058010B16FF0050020
:1023E00010BD08480168012902D04FF0FF3010BD30
:1023F000054A002182F8141D0221016000F0A4FDAD
:10240000002010BD6C0000200BE000E02DE9F04141
:10241000134C0F460546E6682068001D00F0B0FB2F
:10242000681C07D137B12168BDE8F0410D48091D8E
:1024300000F0F6BB20683544B5424560216805D2FE
:10244000A06BBDE8F041091D00F0D2BB606B091D17
:1024500000F0CEFBA06A854200D2A562BDE8F08103
:102460001C000020000E00202DE9F041054600F080
:10247000E3FB2D4CA068401CA06020682B4F10B1DE
:10248000606930B32BE02560A068012827D10026C1
:1024900006EB860007EB800000F09CFB761C382ED4
:1024A000F6D3234800F096FB2148143000F092FB4D
:1024B0001F48283000F08EFB1D483C3000F08AFB9E
:1024C0001B48503000F086FB194860631430A0634D
:1024D00005E02068E96AC06A884200D82560606A21
:1024E000401C60626864E86A2169884200D9206102
:1024F00000EB800007EB8000291D00F091FB00F04D
:10250000BBFB606900280CD02068E96AC06A884279
:1025100007D208494FF080500860BFF34F8FBFF3D8
:102520006F8FBDE8F08100001C00002050090020E2
:10253000B00D002004ED00E038B500F07DFB104C3C
:102540002068C8B90F4800F045FB0E48143000F071
:1025500041FB0C48E060143020610A4B0020F03B46
:10256000009003F1500210210A2000F0FBFD2060D2
:1025700010B105A100F002FCBDE8384000F07CBBC2
:1025800058000020040F0020546D7251000000001C
:1025900030B4026C0B46002A0BD0C1681144C160F4
:1025A0008468A14201D30168C16030BC1846FDF7C0
:1025B00032BF30BC70472DE9F041856B17460446A9
:1025C0000026026C82B1C7B1E068FDF724FFE16824
:1025D000206C091AE1602268914202D2A168081AAF
:1025E000E060022F16D017E02068A8B9A06801F0BB
:1025F000BBF806460020A0600EE06068FDF70BFF08
:10260000216C606808446060A168884204D3206837
:10261000606001E005B16D1E6D1CA5633046BDE82C
:10262000F08110B5044690F8590058B101280CD03B
:1026300002280FD0502080F31188BFF34F8FBFF3D3
:102640006F8FFEE7206B00F02BFB2046BDE81040AB
:1026500000F026BB10BD0000144E154CA6F29C479E
:102660004FF08058DFF84C9012E000BF00F0E4FA21
:10267000F068C568281D00F083FAA068401EA060BD
:102680006068401E606000F0F7FA2846FFF7C9FF57
:1026900060680028EAD138680128F9D9C9F80080B3
:1026A000BFF34F8FBFF36F8FF2E70000EC0D0020F8
:1026B0001C00002004ED00E070B51D46049C51B1E3
:1026C000C4F80020C4E90F010121204600F07EFD7E
:1026D00084F84C5070BD2460F4E700002DE9F05FF1
:1026E0008846DDE90B941546834691009A460A9E7A
:1026F000A522206BFDF7D4FE6FF00301206B01EBE8
:102700008501084420F00707780707D0502080F3A0
:102710001188BFF34F8FBFF36F8FFEE70025B8F12D
:10272000000F0FD05FF00000221818F8001082F898
:10273000341018F8001011B1401C1028F4D384F89C
:10274000435001E084F83450382E00D33726E66237
:10275000C4E91365201D00F048FA04F1180000F0E8
:1027600044FA2461C6F138006462A061656584F8AA
:10277000585052465946384600F0ECF92060B9F1FD
:10278000000F01D0C9F80040BDE8F09F30B51149F5
:1027900000E011460A688242FBD34B685C18844211
:1027A00003D1406818444860084643681C189442A6
:1027B00009D1084C183C2468A24209D052681A4436
:1027C00042600A6812680260814200D0086030BD31
:1027D0000460F9E78800002070B5002441600B4DCB
:1027E0000061914206D8D11A8269914206D2011D38
:1027F000286907E09A4203D2994201D3012403E0F9
:10280000011DE86800F0F4F9204670BD5800002072
:1028100010B5044600F010FAA06B28B15FF0000478
:1028200000F02AFA204610BD0124F9E730B589B03E
:102830003C4D6EE00498002806DADDE90601059AB1
:1028400090470498002864DB069C606910B1201D45
:1028500000F096F903A800F0D7F8024604980A2879
:1028600057D2DFE800F00505052D334A05052D3365
:1028700094F8280040F0010084F828000599A06928
:10288000059B01442046FFF7A7FF68B3216A204655
:10289000884794F8280040073BD500200090059811
:1028A000A169002342181946204601F067F8D8B9FB
:1028B000502080F31188BFF34F8FBFF36F8FFEE777
:1028C00014F8280F20F00100207022E094F828006E
:1028D00040F0010084F828000598A06128B1811813
:1028E00013462046FFF778FF13E0502080F311884D
:1028F000BFF34F8FBFF36F8FFEE794F82800810777
:1029000003D4204600F0CCF903E020F0010084F865
:102910002800002204A9286800F0ACFD002889D115
:1029200009B030BD580000202DE9FC410F46054696
:1029300000F04EFB01A800F067F80446019818B1BA
:1029400000F08AFFBDE8FC81254EAFB13069006818
:10295000D0B30027291B3A46306800F023FA00F074
:102960007BFF0028EED11F494FF080500860BFF375
:102970004F8FBFF36F8FE5E7A542EBD800F06CFFF8
:10298000F0682746C068C468201D00F0F9F894F884
:102990002800410719D5A0692B4641193A4620461F
:1029A000FFF71AFFA8B100200346014600902A460F
:1029B000204600F0E3FF60B9502080F31188BFF398
:1029C0004F8FBFF36F8FFEE707E020F0010084F820
:1029D0002800216A20468847B4E70127BAE70000AB
:1029E0005800002004ED00E00648416B096829B159
:1029F000416BC968C9684968816270474FF0FF310F
:102A0000FAE700001C00002070B5054600F042FE09
:102A1000064E0446B068844203D200F009F8012053
:102A200000E0002028602046B46070BD58000020FF
:102A3000F8B5194D20E0C068C4680668201D00F094
:102A40009FF8216A2046884794F82800400713D54C
:102A5000A0693044B04206D924616060211DE86855
:102A600000F0C6F808E00020034601460090324618
:102A7000204600F083FF38B1E86801680029DAD108
:102A80002969C5E90310F8BD502080F31188BFF310
:102A90004F8FBFF36F8FFEE7580000200848406853
:102AA000401C4FF0500080F3118804D0BFF34F8FCB
:102AB000BFF36F8FFEE7BFF34F8FBFF36F8FFEE75C
:102AC00090000020074CE068016841B1C068002117
:102AD000D0F80000FFF728FFFFF7A8FEF3E7012179
:102AE0000020F7E7580000202DE9F041044600F0EF
:102AF000A3F894F9455004F1240609E0606A48B14E
:102B0000304600F071FE08B100F0E4F96D1E6DB2C0
:102B1000002DF3DC4FF0FF3684F8456000F0ACF890
:102B200000F08AF894F9445004F1100709E0206994
:102B300048B1384600F058FE08B100F0CBF96D1EE0
:102B40006DB2002DF3DC84F84460BDE8F04100F084
:102B500093B8000010B5031F4FF080741C601B1F5A
:102B600021F001011960191F044B0B6014390A6030
:102B7000091F6FF0020244380A6010BD9D2A000848
:102B8000D0E9013201699A60D0E901235A604A68AC
:102B9000824201D182684A60002202610868401EB8
:102BA0000860086870470000034B036003F15C0095
:102BB00008608020106070472C0F0020044B0360D9
:102BC00003F15C0008604FF48070106070470000F3
:102BD0008811002000F108014FF0FF32C0E9011216
:102BE000C1600161002101607047002101617047EF
:102BF00030B50B685A1C02D000F1080202E00269ED
:102C000004E02246546825689D42FAD953684B6017
:102C100099608A60516008610168491C016030BD9B
:102C200042684A6093688B6093685960916008615C
:102C30000168491C01607047502080F31188BFF380
:102C40004F8FBFF36F8F0A494868401C48600128C6
:102C50000CD10848006810F0FF0F07D0502080F317
:102C60001188BFF34F8FBFF36F8FFEE770470000EF
:102C70009000002004ED00E00849486828B1401E9B
:102C8000486001D180F311887047502080F311888B
:102C9000BFF34F8FBFF36F8FFEE70000900000205F
:102CA00070B500282AD0164DA0F108046068696943
:102CB000084207D1502080F31188BFF34F8FBFF334
:102CC0006F8FFEE722683AB1502080F31188BFF37E
:102CD0004F8FBFF36F8FFEE78843606000F078F995
:102CE00060686968084468602046FFF74FFD2869FE
:102CF000401C2861BDE8704000F0AEBD70BD000012
:102D0000700000204FF0E020002101618161054941
:102D10004FF47A720968B1FBF2F1491E4161072153
:102D2000016170471800002010B5FDF7D9FA11496C
:102D300010280ED300F1E02090F8F0030A789042BA
:102D400007D2502080F31188BFF34F8FBFF36F8FEE
:102D5000FEE709480068896800F4E060884207D906
:102D6000502080F31188BFF34F8FBFF36F8FFEE7C2
:102D700010BD0000900000200CED00E010B5084BE5
:102D8000002200BF53F832401CB1521C082AF9D36C
:102D900010BD43F8321003EBC201486010BD0000C3
:102DA0001009002070B515460E460446FFF744FF93
:102DB00094F944100020491C01D184F8440094F98E
:102DC0004510491C01D184F84500FFF755FFA06B61
:102DD00028B92A46314604F1240000F099F820462B
:102DE000BDE87040FFF780BE10B5020014D00F4858
:102DF000006B38B1502080F31188BFF34F8FBFF3C1
:102E00006F8FFEE700F0E4F800211046FFF7FEFAAE
:102E100000F022FD002807D105494FF080500860DE
:102E2000BFF34F8FBFF36F8F10BD00001C00002059
:102E300004ED00E070B50546FFF7FEFE1E4C05B937
:102E40002568281DFFF79CFEA86A18B105F1180037
:102E5000FFF796FE606A401C60622068854207D1D9
:102E6000291D1648FFF7DCFE6068401C606007E023
:102E7000A068401EA0602846FFF7D3FBFFF7B4FD13
:102E8000FFF7FAFE6069002814D02068854211D14E
:102E9000206B38B1502080F31188BFF34F8FBFF300
:102EA0006F8FFEE706494FF080500860BFF34F8FE9
:102EB000BFF36F8F70BD00001C000020EC0D0020E0
:102EC00004ED00E002490A6A0260C9684160704787
:102ED0001C00002001490120C86170471C0000202F
:102EE00010B50C4650B1094909681831FFF780FE4A
:102EF0002046BDE810400121FFF788BA502080F33A
:102F00001188BFF34F8FBFF36F8FFEE71C000020C7
:102F100070B514460D4668B10A4909681831FFF7C3
:102F20007FFE0CB14FF0FF3521462846BDE87040CA
:102F3000FFF76CBA502080F31188BFF34F8FBFF3B7
:102F40006F8FFEE71C00002030B587B0002403948B
:102F500005AA04A903A80494FFF726FEDDE90301EE
:102F60000094CDE90110002315A11748059A00F03F
:102F700057FB164D0028E8621FD000F0CFFC012857
:102F800009D0401C19D1502080F31188BFF34F8F16
:102F9000BFF36F8FFEE7502080F31188BFF34F8F90
:102FA000BFF36F8F4FF0FF30A86201206861EC60C3
:102FB00007B0BDE8304000F045B807B030BD0000B4
:102FC00049444C4500000000592600081C00002020
:102FD0000248016B491C0163704700001C0000207F
:102FE000164810B5016B11B10121C16110BD00215E
:102FF000C1610169124A01E0B9B1491E01EB8103C7
:1030000052F82330002BF7D001EB810302EB83024F
:1030100002F1080453685B685360A34201D15B6806
:103020005360DA680260016110BD502080F311889E
:10303000BFF34F8FBFF36F8FFEE700001C0000202F
:10304000500900201CB537480168374A914207D122
:10305000502080F31188BFF34F8FBFF36F8FFEE7CF
:1030600000683149491E884207D1502080F31188F9
:10307000BFF34F8FBFF36F8FFEE72C4908780190A5
:10308000FF20087008788DF800009DF800009DF87A
:10309000002000F0F000904207D0502080F311880B
:1030A000BFF34F8FBFF36F8FFEE79DF80000204CFA
:1030B00000F0500020700720A06005E09DF800207F
:1030C00052008DF80020401E9DF800201206F5D415
:1030D000A060032807D0502080F31188BFF34F8FE2
:1030E000BFF36F8FFEE74FF44070A0600198087047
:1030F0000C482030016841F470010160016841F022
:1031000070410160FFF7FEFD00206060FDF7B0F840
:103110000848016841F040410160FDF795F8002042
:103120001CBD000000ED00E071C20F4100E400E0B2
:103130009000002034EF00E010B5502080F311889B
:10314000BFF34F8FBFF36F8F00F0AAFA18B1044995
:103150004FF080500860002080F3118810BD0000FF
:1031600004ED00E038B5049D18B153B1CAB181B186
:1031700020E0502080F31188BFF34F8FBFF36F8F93
:10318000FEE7502080F31188BFF34F8FBFF36F8F9E
:10319000FEE7502080F31188BFF34F8FBFF36F8F8E
:1031A000FEE739B1502080F31188BFF34F8FBFF392
:1031B0006F8FFEE750241C46012384F846302B46CF
:1031C0000094FFF779FA204638BD000070B50D462F
:1031D000040025D0FFF730FDD4E90F20216802FB61
:1031E0000011A1600021A163216861600A46D4E951
:1031F0000F01401E00FB0121E16021464FF0FF302E
:1032000001F8440F487004F110008DB1FFF7E2FCA3
:1032100004F12400FFF7DEFCFFF72EFD012070BD56
:10322000502080F31188BFF34F8FBFF36F8FFEE7FD
:1032300021690029F0D000F0D7FA0028ECD0044929
:103240004FF080500860BFF34F8FBFF36F8FE3E7FD
:1032500004ED00E02DE9FF4782B01D468A464FF09D
:103260000008040003D0BAF1000F08D011E050208C
:1032700080F31188BFF34F8FBFF36F8FFEE7206C91
:1032800038B1502080F31188BFF34F8FBFF36F8F99
:10329000FEE7022D0AD1E06B012807D0502080F311
:1032A0001188BFF34F8FBFF36F8FFEE700F0E4F993
:1032B0003F4F4FF000094FF0805648B9049838B19D
:1032C000502080F31188BFF34F8FBFF36F8FFEE75D
:1032D000FFF7B2FCA06BE16B884207D3022D05D04B
:1032E0000498D0B1B8F1000F1AD01EE02A4651461A
:1032F0002046FFF760F9616A19B104F1240000F07B
:1033000073FA20B13E60BFF34F8FBFF36F8FFFF7AB
:10331000B3FC012006B0BDE8F087FFF7ADFC22E06A
:103320006846FFF7CFFD4FF00108FFF7A5FCFFF758
:103330004FFEFFF781FC94F94400401C01D184F852
:10334000449094F94500401C01D184F84590FFF762
:1033500093FC04A9684600F029F930B12046FFF734
:10336000C3FB00F079FA0020D4E7FFF765FCA06BFF
:10337000E16B884213D1FFF77FFC04F11000049940
:10338000FFF7AEFD2046FFF7AFFB00F065FA00281F
:103390009ED13E60BFF34F8FBFF36F8F98E7FFF76B
:1033A0006BFC2046FFF7A0FB00F056FA90E7000008
:1033B00004ED00E02DE9F0471F46904689460400E1
:1033C00003D0B9F1000F08D011E0502080F311882C
:1033D000BFF34F8FBFF36F8FFEE7206C38B15020E3
:1033E00080F31188BFF34F8FBFF36F8FFEE7022F7B
:1033F0000AD1E06B012807D0502080F31188BFF379
:103400004F8FBFF36F8FFEE7FFF78EFC5020EFF377
:10341000118680F31188BFF34F8FBFF36F8FA06BBE
:10342000E16B884206D3022F04D0002086F3118876
:10343000BDE8F08794F94550A06B3A4649462046CE
:10344000FFF7B9F8681C04D06D1C84F845500120C2
:10345000ECE7606A0028FAD004F1240000F0C4F917
:103460000028F4D0B8F1000FF1D00121C8F8001005
:10347000EDE700002DE9F747002683B08A460400F7
:1034800003D0BAF1000F08D011E0502080F311886A
:10349000BFF34F8FBFF36F8FFEE7206C38B1502022
:1034A00080F31188BFF34F8FBFF36F8FFEE700F0FB
:1034B000E3F8DFF8F4804FF000094FF0805748B987
:1034C000059838B1502080F31188BFF34F8FBFF3B8
:1034D0006F8FFEE7FFF7B0FBA56BC5B151462046E5
:1034E000FFF756F86D1EA563206950B104F1100076
:1034F00000F07AF928B1C8F80070BFF34F8FBFF31E
:103500006F8FFFF7B9FB012006B0BDE8F087059883
:1035100008B11EB106E0FFF7AFFB27E06846FFF7F2
:10352000D1FC0126FFF7A8FBFFF752FDFFF784FB54
:1035300094F94400401C01D184F8449094F945006A
:10354000401C01D184F84590FFF796FB05A9684619
:1035500000F02CF8002820460AD0FFF7C5FA00F04A
:103560007BF92046FFF754F90028B3D00020CBE7C1
:10357000FFF74EF990B104F124000599FFF7B0FC74
:103580002046FFF7B1FA00F067F90028A2D1C8F889
:103590000070BFF34F8FBFF36F8F9BE72046FFF79D
:1035A000A3FA00F059F995E704ED00E02DE9F041A8
:1035B0000C46050011D0C4B1FFF73EFB174BDA688B
:1035C0006E682068911B471C17D02F681B6A9F42AA
:1035D00019D0964217D8012410E0502080F31188AA
:1035E000BFF34F8FBFF36F8FFEE7502080F311883A
:1035F000BFF34F8FBFF36F8FFEE70024FFF73CFB55
:103600002046BDE8F081884205D9401A206028464E
:10361000FFF758FCF1E700202060DCE71C000020E9
:10362000F0B585B0DDE90B640A9DA6B1DCB15C277D
:1036300000972663022684F85960002604AFCDE97E
:103640000246CDE90057FFF749F82046FEF70CFF88
:10365000049805B0F0BD502080F31188BFF34F8F60
:10366000BFF36F8FFEE7502080F31188BFF34F8FB9
:10367000BFF36F8FFEE700000548416919B1006B89
:1036800018B10020704701207047022070470000E9
:103690001C0000200148C068704700001C0000208A
:1036A0002DE9F0412E4C0027206B28B1A069401C69
:1036B000A0613846BDE8F081E668761CE66013D16B
:1036C000606B006838B1502080F31188BFF34F8FD2
:1036D000BFF36F8FFEE7606BA16B6163A063206A2D
:1036E000401C2062FFF780F9A06ADFF878808642EC
:1036F00009D3606B0068A0B1606BC068C56868687A
:10370000864211D2A0622068C06A00EB800158F89E
:103710002100012800D90127E0690028C9D001272C
:10372000C7E74FF0FF30EDE7281DFFF729FAA86A39
:1037300018B105F11800FFF723FAE86A21698842F9
:1037400000D9206100EB800108EB8100291DFFF703
:1037500067FAE86A2168C96A8842CAD30127C8E7BC
:103760001C0000205009002070B504004FF000013B
:1037700033D01B4D2868844207D0502080F3118835
:10378000BFF34F8FBFF36F8FFEE7206D38B1401E40
:103790002065E36CE26A9A421FD040B11DE05020E0
:1037A00080F31188BFF34F8FBFF36F8FFEE7201DAB
:1037B000FFF7E6F9E06CE062C0F13800A061E06A72
:1037C0002969884200D92861064900EB800001EB95
:1037D0008000211DFFF724FA0121084670BD00007A
:1037E0001C0000205009002070B5C068C46854B1A6
:1037F00004F118000646FFF7C3F9144D286B50B1C9
:103800003146134815E0502080F31188BFF34F8FE5
:10381000BFF36F8FFEE7201DFFF7B2F9E06A296959
:10382000884200D928610B4900EB800001EB800041
:10383000211DFFF7F5F9E06A2968C96A884202D9B3
:103840000120E86170BD002070BD00001C00002058
:10385000D80D0020500900202DE9F0472C4D002400
:103860002746286B38B1FFF7E7F9286B401E28631D
:10387000286B40B146E0502080F31188BFF34F8F92
:10388000BFF36F8FFEE7A968224E0120D1B3A6F5E2
:10389000916980463068E0B1F068C46804F11800AE
:1038A000FFF76EF9201DFFF76BF9E06A296988427E
:1038B00000D9286100EB800109EB8100211DFFF791
:1038C000AFF9E06A2968C96A8842E3D3C5F81C8069
:1038D000E0E70CB1FFF788F8AC694CB14FEA080695
:1038E000FFF7DEFE00B1EE61641EF9D10020A86191
:1038F000E86938B10849012738070860BFF34F8FDE
:10390000BFF36F8FFFF7B8F93846BDE8F0870000C6
:103910001C000020D80D002004ED00E010B586B09A
:10392000FEF70AFE114C2068B8B100200390049005
:1039300005AA04A903A8FFF741F9DDE90321022044
:103940008DE8070000230AA10B48059AFFF768FEDF
:10395000606010B106B0012010BD502080F31188C6
:10396000BFF34F8FBFF36F8FFEE7000058000020BA
:10397000546D722053766300C52A00082DE9FF417B
:103980001E46134602000A9D4FF0000016D0144C4C
:103990002768002F0FD0CDE900130292062917DA0D
:1039A000FFF76AFE02284FF000030FD0002269469D
:1039B0002068FFF74FFC04B0BDE8F081502080F391
:1039C0001188BFF34F8FBFF36F8FFEE72A46EEE7F4
:1039D0000023324669463846FFF7ECFCEBE700006F
:1039E000580000204FF04070E1EE100A70470000D0
:1039F000000000000000010203040607080900009F
:103A00000000010203040000283A00080000002022
:103A10009C000000C4010008C43A00089C0000207B
:103A2000AC1B0000E00100080000000000000000E6
:103A30000000000001000000100000000000000075
:103A40000024F4000000000000000000000000005E
:103A50000000000000000000000000000000000066
:103A60000000000000000000000000000000000056
:103A70000000000000000000000000000000000046
:103A80000000000000000000000000000000000036
:103A90000000000000000000000000000000000026
:103AA0000000000000000000000000000000000016
:103AB000000000000000000000000000AAAAAAAA5E
:043AC0000000000002
:040000050800018965
:00000001FF
